:10067C00D3EF9400EE940040147DB07C04ED1D701B
:0D068C00011CED4C70F7EF1F70E61E80E3BF
:01069900223E
:1005DC005374617274210D0A005347502073656E79
:1005EC00736F722070726F62696E67210D0A00540E
:1005FC00564F433A256420507062202C20636F3292
:0A060C003A25642050706D0D0A00BD
:10065D00759850438E40538EFE53890F758BD07510
:0F066D008DFFC2ABD28ED29CD2AFD2ACD299222B
:1004A300E4F52612065D1206D77F647E0012067CF1
:1004B3007BFF7A0579DC1200657D087F2012063DFB
:1004C3001204138F258E248D238C22E4FFFEE52254
:1004D300781012035F8E278F28E525FFE524FEE4BD
:1004E3008E298F2AE528B49021E527B4011CE52A3B
:1004F30045297016E52670127BFF7A0579E512000F
:10050300657FC87E0012067C80AF7BFF7A0579FB8E
:1005130085292E852A2F8527308528311200657F6E
:0B052300207E0312067C752601808EEE
:0706BD001206C4D2907F3247
:0706C400AE071FEE70FA22E1
:10069A00D2911206C0C2917F321206C4C2907F3232
:0306AA000206C481
:1006AD00C291C2907F321206BDD2917F320206C432
:02058C00AD07B9
:10058E00C2907F0A1206C4E4FCED30E704D29180DB
:10059E0002C2917F051206C4D2907F051206C4C214
:1005AE00907F051206C4ED25E0FD0CBC08DB7F0133
:1005BE001206C4D2917F281206C4D2907F2812064A
:0D05CE00C4309105C2907F0122C2907F00D1
:0105DB0022FD
:10052E00AE2DAD2CAC2B78081203728F2E8E2D8D26
:05053E002C8C2BE4FFF2
:02054300AD0702
:10054500E4FBC2907F281206C4D291E4FCD2907FCE
:10055500141206C4EB25E0FB30910543030180032B
:100565005303FE7F0A1206C4C2907F3C1206C40CD8
:10057500BC08DAED24FF92917F1E1206BDC2907F62
:06058500961206C4AF034C
:01058B00224D
:0706D7007D037F2002063DB8
:10063D00AB05AA0712069A7FB012058CAF02120500
:10064D008CAF0312058C1206AD7F647E0002067C12
:1004130012069A7FB112058CE4FF120543E48F2E76
:10042300F52DF52CF52B12052EE4FCFDFEE52E2F04
:10043300F52EEE352DF52DED352CF52CEC352BF574
:100443002BE4FF120543AF2E12052EE4FCFDFEE55F
:100453002E2FF52EEE352DF52DED352CF52CEC3517
:100463002BF52BAF2EAE2DAD2CFC78081203728F1B
:100473002E8E2D8D2C8C2B7F01120543E4FCFDFE6B
:10048300E52E2FF52EEE352DF52DED352CF52CEC37
:0F049300352BF52B1206ADAF2EAE2DAD2CAC2BAD
:0104A2002237
:030000000206CB2A
:0C06CB00787FE4F6D8FD75813E0204A3A0
:10035F00E8600FECC313FCED13FDEE13FEEF13FF7C
:03036F00D8F122A0
:10037200E8600FEFC333FFEE33FEED33FDEC33FCE9
:03038200D8F1228D
:10000300E53A242EF8E6053A22782B300702782EBB
:10001300E475F0011203DD0203852000EB7F2ED28D
:10002300008018EF540F2490D43440D4FF30040BD5
:10003300EF24BFB41A0050032461FFE53B600215AF
:100043003B053EE53E7002053D30070D782BE47518
:10005300F0011203DDEF0203CB0206167403D2078D
:100063008003E4C207F53A8B2B8A2C892DE4F53BF8
:10007300F53DF53EE53B60077F2012003E80F575B8
:100083003CFFC201C200C202C203C205C206C208CB
:1000930012000CFF700D3007057F0012004FAF3EBA
:1000A300AE3D22B4255FC2D5C20412000CFF24D09A
:1000B300B40A00501A75F00A783B30D50508B6FF2C
:1000C3000106C6A426F620D5047002D20380D924E3
:1000D300CFB41A00EF5004C2E5D20402024FD2019A
:1000E30080C6D20080C0D20280BCD2D580BAD205ED
:1000F30080B47F2012003E2002077401B53B00400C
:10010300F1120003FF12003E020077D208D20680EC
:1001130095120003FB120003FA120003F94A4B7015
:100123000679207A037BFF20022EE53B602A7E00BE
:100133008E8275830012039E60060EEE653C70F09E
:10014300C2D5EBC0E0EAC0E0E9C0E0EE120296D00F
:10015300E0F9D0E0FAD0E0FB120385FF60AAEBC020
:10016300E0EAC0E0E9C0E012003ED0E02401F9D0AB
:10017300E03400FAD0E0FBE53C0460DCD53CD980F8
:10018300877BFF7A027992D202809C791080027970
:1001930008C206C2088008D2D5790A8004790AC247
:1001A300D5E53C047002F53CE4FAFDFEFF120003C2
:1001B300FC7B08200113120003FD7B1030000A12A0
:1001C3000003FE120003FF7B20EC3382D592D5504F
:1001D30013C3E43000069FFFE49EFEE42001039D69
:1001E300FDE49CFCE4CBF8C201EC700CCFCECDCC8B
:1001F300E824F8F870F38017C3EF33FFEE33FEED16
:1002030033FDEC33FCEB33FB994002FB0FD8E9EBF6
:10021300300105F8D0E0C448B201C0E00AEC4D4E0D
:100223004F78207B0070C2EAB53C0040BCC0E012AE
:100233000298D0F0D0E0200104C4C0E0C4B201C0F1
:10024300F0120027D0F0D5F0EB0200771203ED0196
:100253001453018E5800E54C00E14201924F019A7C
:0F02630044019A4900FA4301A0550184460184E1
:100272004501844703405000E92D00ED2E01102B6B
:1002820000F123010E2003292A00A94800000108D9
:100292003F3F3F00790AA2D5200314300509B91067
:1002A200020404B9080104A2D52006025001042068
:1002B20002689202B53B005034C0E07F203003193F
:1002C2007F30A20272067205500F1202EFC202C202
:1002D20006C205C2087F30800F300503E9C0E01274
:1002E200003E300503D0E0F9D0E0B53BCC30051735
:1002F2007F30B9100C12003E7F583004077F78809F
:1003020003B9080312003E3002057F2D02003E7F32
:10031200202008F87F2B2006F322920280CF286E3D
:10032200756C6C2900D2011200033001F8C2017809
:100332003B30D50108F60200A92D5043495812005E
:10034200032403B405004001E490033B9312002F01
:0D035200743A12002FD203753B0402018E95
:10038500BB010689828A83E0225002E722BBFE0276
:09039500E32289828A83E49322A9
:10039E00BB010CE58229F582E5833AF583E0225014
:1003AE0006E92582F8E622BBFE06E92582F8E2225E
:0D03BE00E58229F582E5833AF583E4932278
:1003CB00BB010689828A83F0225002F722BBFE0111
:0203DB00F3220B
:1003DD00FAE6FB0808E6F925F0F618E6CA3AF62221
:1003ED00D083D082F8E4937012740193700DA3A39F
:1003FD0093F8740193F5828883E4737402936860B3
:06040D00EFA3A3A380DFB2
:10061600EFB40A07740D120621740A309811A899CE
:10062600B8130CC2983098FDA899C298B811F63044
:0706360099FDC299F599221C
:00000001FF
